:03000000021B766A
:0C1B7600787FE4F6D8FD758173021BBD7A
:101EA900566F6C746167653A256620560D0A0052B3
:101EB9006573697374616E63653A2566206F686D31
:101EC900730D0A0042656E643A256620646567727F
:101ED9006565730D0A00563A00523A00413A006DA1
:021EE900760081
:101EEB00044740A00000043347C35000044346DDC1
:101EFB004000044B473E7B000426000000000422F8
:101F0B0000000000042F00000000053E0000000050
:101F1B0000073700000000000000052A0000000049
:011F2B0000B5
:10166400AC4FAD50EC120D17AB4AAA49A948A84794
:10167400120AF3E4FBFA79807844120BFC8F298E6A
:10168400288D278C26AB29AA28A927A826AF4AAEDD
:1016940049AD48AC47120BFCE4FBFA798078BF12E1
:1016A4000A02AB36AA35A934A833120AF38F258E61
:1016B400248D238C22E4FFFE7D7A7C44AB29AA2866
:1016C400A927A826120AF3120D50E47BE87A03F93D
:1016D400F8121E65EF2430F53EE4FFFE7D7A7C446B
:1016E400AB29AA28A927A826120AF3120D50E47BD5
:1016F400E87A03F9F8121E65AC00AD01AE02AF033F
:10170400E47B64FAF9F8121E65EF2430F53FE4FF38
:10171400FE7D7A7C44AB29AA28A927A826120AF3BD
:10172400120D50E47B64FAF9F8121E65AC00AD01A9
:10173400AE02AF03E47B0AFAF9F8121E65EF243017
:10174400F540E4FFFE7D7A7C44AB29AA28A927A8AA
:1017540026120AF3120D50E47B0AFAF9F8121E65F8
:10176400EB2430F5417B007A00793E7D027F241220
:101774001F6FAF25AE24AD23AC22120D507BA07A8F
:101784008679017800121E65EF2430F537AF25AE57
:1017940024AD23AC22120D507BA07A867901780007
:1017A400121E65AC00AD01AE02AF03E47B107A27D4
:1017B400F9F8121E65EF2430F538AF25AE24AD23B9
:1017C400AC22120D50E47B107A27F9F8121E65AC96
:1017D40000AD01AE02AF03E47BE87A03F9F8121E10
:1017E40065EF2430F539AF25AE24AD23AC22120DBC
:1017F40050E47BE87A03F9F8121E65AC00AD01AE43
:1018040002AF03E47B64FAF9F8121E65EF2430F5A5
:101814003AAF25AE24AD23AC22120D50E47B64FA1A
:10182400F9F8121E65AC00AD01AE02AF03E47B0A09
:10183400FAF9F8121E65EF2430F53BAF25AE24AD5E
:1018440023AC22120D50E47B0AFAF9F8121E65EB60
:101854002430F53C7B007A0079377D047F24121F05
:101864006FE4FFFEFDFCAB32AA31A930A82F120CA5
:10187400995054752A2DAF32AE31AD30AC2F120DC4
:10188400501221AA7C007D64121032EF2430F52B13
:10189400AF32AE31AD30AC2F120D501221AA7C0004
:1018A4007D641210327E007F0ACFCDCFCECCCE1213
:1018B4001032EF2430F52CAF32AE31AD30AC2F12F4
:1018C4000D501221AA8046752A20AF32AE31AD30B8
:1018D400AC2F120D50AB07AA067C007D64121032A7
:1018E400EF2430F52B7C007D64AF03AE021210327E
:1018F4007E007F0ACFCDCFCECCCE121032EF243073
:10190400F52CAF32AE31AD30AC2F120D507C007DD2
:101914000A121032ED2430F52D7B007A00792A7DED
:06192400067F1B021F6F8D
:101ADF007E007F3C7D007B017A0079001210FB7540
:101AEF0054FF75551E7556A985295A85285985277E
:101AFF00588526577B017A00790012125112211155
:101B0F007E007F3C7D007B017A0079001210FB750F
:101B1F0054FF75551E7556B885255A85245985234A
:101B2F00588522577B017A00790012125112211128
:101B3F007E007F3C7D007B017A0079001210FB75DF
:101B4F0054FF75551E7556CD85325A8531598530DE
:101B5F0058852F577B017A007900121251122111EB
:071B6F007FF47E0102212D2D
:10217600759850758920758DFD758BFDE4F587D2B0
:022186008E22A7
:0821B6008F993099FDC29922B6
:062111007B017A00790059
:10211700120F736010F5993099FDC299740129F96E
:06212700E43AFA80EB220D
:10192A00122176121A2F12202B759D0F75BCA0E476
:10193A00FBFDFF121E107B01E4FD7F12121E107BBD
:10194A0002E4FD7F24121E107B03E4FD7F36121E83
:10195A00107B04E4FD7F48121E107B05E4FD7F5ACC
:10196A00121E107B06E4FD7F6C121E107BFF7A1E8E
:10197A0079DF7D02E4FF121F6F7BFF7A1E79E27D19
:10198A0004E4FF121F6F7BFF7A1E79E57D06E4FFF0
:10199A00121F6F7BFF7A1E79E87D027F47121F6F45
:1019AA007B077D047F5A121E107B087D067F3F123B
:1019BA001E107F03121FF18E4F8F50AF25AE24AD3C
:1019CA0023AC22120D50C004C005C006C007AF46A2
:1019DA00AE45AD44AC43120D508F588E578D568C80
:1019EA0055AF4EAE4DAD4CAC4B120D508F5C8E5B6D
:1019FA008D5A8C59E4F560F55FF55EF55D75645AAC
:101A0A00F563F562F561D007D006D005D004121D42
:101A1A0054EC120D128F328E318D308C2F121664C7
:051A2A00121ADF808D9F
:101D54008F548E538D528C51C3E5649560FBE563BB
:101D6400955FFAE562955EF9E561955DF8C3E55422
:101D74009558FFE5539557FEE5529556FDE5519567
:101D840055FC121068C3E55C9558FBE55B9557FA62
:101D9400E55A9556F9E5599555F8121E65EF2560F3
:0E1DA400FFEE355FFEED355EFDEC355DFC2299
:101FF100E4F5BDF5BEE5BC54E044084FF5BC7FFAFD
:10200100E5BC30E41E53BCEFAEBDEEFD7C007E00AE
:102011007802C333CE33CED8F9FFE5BE5403FDEFCA
:092021004DFF22DFDB7E047F008D
:01202A002293
:10000300003E5149453E0000427F4000004261519D
:100013004946002141454B31001814127F10002737
:1000230045454539003C4A494930000171090503FA
:1000330000364949493600064949291E000036362B
:10004300000000005636000000081422410000148E
:10005300141414140000412214080002015109066B
:1000630000324959513E007C1211127C007F4949EC
:100073004936003E41414122007F4141221C007F1D
:1000830049494941007F09090901003E4149497A2B
:10009300007F0808087F0000417F410000204041A5
:1000A3003F01007F08142241007F40404040007F11
:1000B300020C027F007F0408107F003E4141413E55
:1000C300007F09090906003E4151215E007F09199D
:1000D30029460046494949310001017F0101003F9A
:1000E3004040403F001F2040201F003F4038403F1A
:1000F300006314081463000708700807006151497E
:10010300454300007F41410000552A552A55000010
:1001130041417F000004020102040040404040408E
:10012300000001020400002054545478007F484426
:10013300443800384444442000384444487F00385D
:100143005454541800087E0901020018A4A4A47C86
:10015300007F080404780000447D40000040808450
:100163007D00007F102844000000417F4000007C98
:1001730004180478007C08040478003844444438A4
:1001830000FC242424180018242418FC007C0804F0
:10019300040800485454542000043F444020003CC9
:1001A3004040207C001C2040201C003C4030403C50
:1001B300004428102844001CA0A0A07C00446454E0
:1001C3004C44141414141414000000000000000024
:1001D3000000000000000000000000F80000000024
:1001E300000000333000000000100C06100C060065
:1001F300000000000000000040C07840C0784000CC
:10020300043F04043F040400007088FC083000002D
:10021300001820FF211E0000F008F000E018000085
:1002230000211C031E211E0000F00888700000003E
:100233001E2123241927211010160E000000000090
:100243000000000000000000000000E018040200AD
:10025300000000071820400000020418E00000001E
:100263000040201807000000404080F0804040001C
:100273000202010F01020200000000F00000000072
:100283000101011F01010100000000000000000046
:1002930080B07000000000000000000000000000BB
:1002A3000001010101010101000000000000000044
:1002B30000303000000000000000000080601804DF
:1002C300006018060100000000E010080810E000BC
:1002D300000F102020100F00001010F80000000085
:1002E3000020203F202000000070080808887000CC
:1002F300003028242221300000300888884830004C
:100303000018202020110E000000C02010F800006B
:1003130000070424243F240000F808888808080004
:100323000019212020110E0000E010888818000019
:10033300000F112020110E0000380808C8380800EB
:100343000000003F0000000000708808088870006B
:10035300001C222121221C0000E010080810E000EC
:100363000000312222110F00000000C0C000000075
:10037300000000303000000000000080000000009A
:100383000000806000000000000080402010080092
:10039300000102040810200040404040404040005B
:1003A3000404040404040400000810204080000036
:1003B3000020100804020100007048080808F0003B
:1003C3000000003036010000C030C828E810E0000B
:1003D3000718272423140B000000C038E000000096
:1003E300203C23020227382008F888888870000000
:1003F300203F202020110E00C030080808083800D4
:10040300071820202010080008F808080810E0004A
:10041300203F202020100F0008F88888E8081000EB
:10042300203F20202320180008F88888E8081000BF
:10043300203F200003000000C030080808380000F7
:1004430007182020221E020008F808000008F808F8
:10045300203F210101213F20000808F8080800007F
:100463000020203F2020000000000808F8080800B2
:10047300C08080807F00000008F888C0281808002A
:10048300203F20012638200008F808000000000063
:10049300203F20202020300008F8F800F8F808005A
:1004A300203F003F003F200008F830C00008F80854
:1004B300203F200007183F00E01008080810E00064
:1004C3000F10202020100F0008F808080808F0007B
:1004D300203F210101010000E01008080810E0009E
:1004E3000F18242438504F0008F888888888700033
:1004F300203F2000030C30200070880808083800D3
:100503000038202121221C00180808F808081800C8
:100513000000203F2000000008F808000008F80849
:10052300001F202020201F000878880000C83808FA
:10053300000007380E010000F80800F80008F80072
:10054300033C0700073C030008186880806818080C
:1005530020302C03032C30200838C800C83808008A
:100563000000203F2000000010080808C8380800D9
:100573002038262120201800000000FE020202007D
:100583000000007F40404000000C30C0000000002D
:10059300000000010638C00000020202FE00000055
:1005A300004040407F0000000000040202020400FB
:1005B3000000000000000000000000000000000038
:1005C3008080808080808080000202040000000020
:1005D3000000000000000000000080808080000018
:1005E3000019242222223F2008F800808000000006
:1005F300003F112020110E000000008080800000C9
:10060300000E112020201100000000808088F800D7
:10061300000E112020103F20000080808080000009
:10062300001F222222221300008080F0888888186D
:100633000020203F20200000000080808080800078
:10064300006B94949493600008F80080808000000D
:10065300203F210000203F200080989800000000E8
:100663000020203F20200000000000809898000018
:1006730000C08080807F000008F800008080800038
:10068300203F24022D302000000808F8000000005D
:100693000020203F20200000808080808080800018
:1006A300203F20003F20003F8080008080800000AA
:1006B300203F210000203F20000080808080000038
:1006C300001F202020201F00808000808000000069
:1006D30080FFA12020110E00000000808080800098
:1006E300000E112020A0FF80808080008080800089
:1006F30020203F21200001000000808080808000B6
:100703000033242424241900008080E0808000002A
:100713000000001F20200000808000000080800077
:10072300001F202020103F208080800000808080D8
:1007330000010E3008060100808000800080808068
:100743000F300C030C300F0000808000808080008D
:100753000020312E0E3120008080800000808080B8
:1007630080818E7018060100008080808080800068
:100773000021302C2221300000000000807C020286
:1007830000000000003F404000000000FF000000A8
:1007930000000000FF0000000002027C8000000057
:1007A3000040403F00000000000601010202040473
:1007B300000000000000000004442414047C05062B
:1007C300047C041424440400000000000000000022
:1007D300000000000000000000001D151515151590
:1007E3001555955730000000000000000000000080
:1007F300000000000000000000F0101010FF1010B7
:1008030010FF101010F000000000000000000000B6
:10081300000000000000000000FF4242427F42420D
:10082300427F424242FF000000000000000000003F
:1008330000000000000000000000FC242424FC252C
:100843002624FC24242404000000000000000000EF
:10085300000000000000000040308F80844C5525CC
:100863002525554C8080800000000000000000001A
:1008730000000000000000001010D0FF9050205036
:100883004C434C502040400000000000000000009A
:100893000000000000000000040300FF0041445872
:1008A300414E605847404000000000000000000037
:1008B30000000000000000001060028C00FE02F245
:1008C30002FE00F800FF000000000000000000002E
:1008D300000000000000000004047E018047300F88
:1008E30010270047807F0000000000000000000088
:1008F3000000000000000000000022322AA6A262CD
:100903002111098101000000000000000000000027
:100913000000000000000000004222130B42827E10
:1009230002020A122346000000000000000000003B
:1009330000000000000000002030AC63300088C8D5
:10094300A8998E88A8C88800000000000000000055
:1009530000000000000000002267221212804030D5
:100963000F00003F40407100000000000000000045
:1009730000000000000000000000F0080402020272
:10098300020408F000000000000000000000000066
:10099300000000000000000000000C090A0C000029
:1009A3000C0A090C00000000000000000000000019
:1009B300000000000000000000000C12120C0000F8
:1009C3000000000000000000000000000000000024
:1009D3000000000000000000000000000000000014
:1009E3000000000000000000000000000000000004
:0809F3000000000000000000FC
:10212D00EF4E60157D087C07ED1DAA0470011C4A59
:09213D0070F6EF1F70EA1E80E746
:012146002276
:101F2D00F583E5822CF582E43583F583E493FF7D1B
:011F3D0001A2
:101F3E00ED6004D2A38002C2A3C2A4E4FEEEC39459
:101F4E0008748094805015C2A0EF30E704D2A180AF
:101F5E0002C2A1D2A0EF25E0FF0E80E1D2A4D2A34F
:011F6E002250
:1020F100AC07ED24B0FFE4FD121F3EEC54F0C454D4
:102101000F4410FF121F3EEC540F4401FF021F3E0B
:10218800E4FD7F8D121F3E7F14121F3E7FAF021F9A
:012198003E08
:10219900E4FD7F8D121F3E7F10121F3E7FAE021F8E
:0121A9003EF7
:10202B00E4FCECC3940874809480502CEC24B0FF37
:10203B00E4FD121F3EE4FF121F3E7F10121F3EE411
:10204B00FBEBC3948074809480500A7D01E4FF12F3
:08205B001F3E0B80EC0C80CA53
:01206300225A
:061C0200AA07A905AF03CB
:101C0800E4FCEF24E0FBEAD3947F748094804004E2
:101C1800E4FA0909AF02AD011220F1E4FCECC39427
:101C28000874809480501D75F010EBA42CF582E4A4
:101C380035F0F583E58224CBF582E5833401121F64
:101C4800370C80D9AF02E904FD1220F1E4FCECC3A3
:101C5800940874809480501D75F010EBA42CF582C4
:101C6800E435F0F583E58224D3F582E58334011267
:051C78001F370C80D9AC
:011C7D002244
:042147008F73A905E4
:10214B007F017E00AD0119ED6009AD737C00120FAC
:03215B00CB80F145
:01215E00225E
:081C7E008F128D138A148B15DF
:101C8600E4F51AF518E518C39516505FC3E51695E1
:101C96001814FD7F0A122147AC14AD15CFCDCFCE57
:101CA600CCCE120FDD7C007D0A120FDD8D19E51AF0
:101CB6007020E51614FFE518C39F5016E519700F3E
:101CC600E517C3138518F0A42512FF7B2080137532
:101CD6001A01E517C3138518F0A42512FFE5192488
:0B1CE60030FBAD13121C020518809AA1
:011CF10022D0
:0A1F6F008F518D528B538A5489550F
:101F7900E4F556AB53AA54A95585568275830012C8
:101F89000F8CFB6021AD52AF51121C027408255110
:101F9900F551D39478748094804007E4F551055243
:061FA9000552055680CD33
:011FAF00220F
:041E1000AA07A9056F
:101E1400E4F5511220F1E4FCECC394107480948036
:101E2400501575F040EBA424BBF582E5F03407129D
:101E34001F2D05510C80E1AF02E904FD1220F1E4ED
:101E4400FCECC3941074809480501575F040EBA49E
:101E540024DBF582E5F03407121F2D05510C80E1D7
:011E6400225B
:041CF2008F088B0AC2
:101CF600E4F50FF510E50B5407700BE50B13131302
:101D0600541FF511800AE50B131313541F04F51124
:101D16008D11E511C3950B5034AD11AF081220F1AA
:101D2600AC08ECC3950A5021AB0CAA0DA90E051000
:101D3600E510AE0F7002050F14F5828E83120F8C1C
:0D1D4600FF7D01121F3E0C80D9051180C5E4
:011D5300226D
:101A2F00D2A27F647E0012212DC2A27F647E00129B
:101A3F00212DD2A2E4FD7FAE121F3EE4FF121F3E06
:101A4F007F10121F3E7F40121F3E7F81121F3E7F6D
:101A5F00CF121F3E7FA1121F3E7FC8121F3E7FA6CF
:101A6F00121F3E7FA8121F3E7F3F121F3E7FD312D1
:101A7F001F3EE4FF121F3E7FD5121F3E7F80121FB5
:101A8F003E7FD9121F3E7FF1121F3E7FDA121F3E9B
:101A9F007F12121F3E7FDB121F3E7F40121F3E7FC1
:101AAF0020121F3E7F02121F3E7F8D121F3E7F149A
:101ABF00121F3E7FA4121F3E7FA6121F3E7FAF1242
:101ACF001F3E7FAF121F3E12202BE4FDFF0220F1BD
:0C1FB000D2957B017A007D017C007F014E
:061FBC008C6D8D6EA9077B
:101FC200E4FFEFC3995027E4FEEEC3956EE56D641E
:101FD20080F87480985014E4FDEDC39BEA6480F8A5
:0E1FE20074809850030D80F10E80DE0F80D4C5
:011FF00022CE
:10215F00121FB0C2957B3F7D017F06121FBCD29527
:07216F007D017F05021FBC8A
:10209A00E4F56FF570756F08D3E56F94007480945A
:1020AA0080401AC29500E57013F570121FB0309582
:0F20BA00034370807B08121FB4156F80DBAF707B
:0120C90022F4
:022064008F717A
:10206600E4F572757208D3E572940074809480402A
:1020760022C29500E5711392957B0F121FB4D2957B
:10208600E571C313F5717B017D017F01121FBC153C
:032096007280D382
:012099002224
:101DB20012215F7FCC1220647F4412206412215FC3
:101DC2007FCC1220647FBE12206412209A8F1F12D1
:101DD200209AEFFEE51FFFFDAC06E4120D17E4FBAF
:101DE200FA7980783D120AF38F1E8E1D8D1C8C1B92
:101DF200E4FFFE7D207C41AB1EAA1DA91CA81B127C
:0E1E02000AF3E4FBFAF9783F120A02020D50CF
:1009FB00020DBCE86480F8E933E83360110460F061
:100A0B00ED33EC337009E8FCE9FDEAFEEBFF220461
:100A1B0060DED3EB9FEA9EE99DE8C2E78CF0C2F75C
:100A2B0095F0400CE8CCF8E9CDF9EACEFAEBCFFB28
:100A3B00120D8785D0F05804700320D5B3E80470ED
:100A4B00075002B2D5020DC692D5EC0460F7E4CC88
:100A5B00C0E0C398F8603B94186008400DD0E0FBF1
:100A6B00020D9EE4FBFAC9FC8028E830E406E4C9D9
:100A7B00FBE4CAFCE830E305E4C9CACBFCE8540745
:100A8B006010F8C3E913F9EA13FAEB13FBEC13FC50
:100A9B00D8F130F52FC3E49CFCEF9BFFEE9AFEEDF3
:100AAB0099FDD0E0FBEF4E4D4C701222DB03020D93
:100ABB00C3EC2CFCEF33FFEE33FEED33FDED30E7F3
:100ACB00EB020D9EEF2BFFEE3AFEED39FDD0E0FB76
:100ADB0050130BBB0003020DC6ED13FDEE13FEEF1F
:080AEB0013FFEC13FC020D9E49
:100AF300EC4D6011E8497017ED33EC3304600DE4FD
:100B0300FCFFFEFD22E933E8330470F8020DBC124A
:100B13000D8758046009E4CC24815006285009024B
:100B23000DC6284003020DC3C0E0EB4A7044B980F0
:100B330006D0E0FB020DB2EF4E701CBD8008EBFF48
:100B4300EAFEE9FD80EBE98DF0A4FEE5F0020BDCA3
:100B5300E9CDF9EAFEEBFFEF89F0A4FCE5F0CE89DD
:100B6300F0A42EFFE435F0CD89F0A42DFEE435F09A
:100B73008067EF4E7005BD80D780C3EF8BF0A4ACC8
:100B8300F0EE8BF0A42CFCE435F0F8EF8AF0A42C03
:100B9300E5F038FCE433CB8DF0A42CFCE5F03BF816
:100BA300EE8AF0A42CFCE5F038F8E433CF89F0A406
:100BB3002CFCE5F038CF3400CE89F0A42FFFE5F00C
:100BC3003EFEE433C98DF0A42EFEE5F039CD8AF064
:100BD300A42FFFE5F03EFEE43DFD33D0E0FB5007DC
:100BE3000BBB000F020DC6EC2CFCEF33FFEE33FE04
:060BF300ED33FD020D9E32
:100BF900020DC6EC5D046005E859047003020DBCE2
:100C0900120D87580460F6EC4860F2EC7004FDFEA2
:100C1900FF22C860DB2481C85009C39860025006CE
:100C2900020DC39850CAF582E9294B4A7005AB8277
:100C3900020DB275F0007C1A7880C3EF9BEE9AED35
:100C490099400DC3EF9BFFEE9AFEED99FDE842F046
:100C5900DC23ACF0D0E0FFD0E0FED0E0FDAB822099
:100C6900E7101BEB60BAEC2CFCEF33FFEE33FEED23
:100C790033FD020D9EE803F830E705C0F075F0007A
:100C8900EF2FFFEE33FEED33FD40B830E7C280AA07
:100C990074F8CC6480CCC86480C8F58204604FC302
:100CA900EB9FF5F0EA9E42F0E99D42F0E89C45F0A1
:100CB900603C501DE5825FFFE582D313CB5BCBF42B
:100CC9002B5582FB50280ABA002409B90020088054
:100CD9001DE5825BFBE582D313CF5FCFF4C3132FEE
:100CE9005582FF50090EBE00050DBD00010CC3EB76
:100CF9009FF5F0EA9E42F0E99D42F0E89C45F060DC
:090D090007CC4820E701B3EC22FD
:100D120075F020800E75F010800575F0087D007E5C
:100D2200007F003392D530D5031210B7EC33401058
:100D3200EF33FFEE33FEED33FDEC33FCD5F0ED2265
:0E0D4200E5F0247EA2D513CC92E7CDCEFF22A1
:100D5000EDD2E7CD33EC3392D524814006E4FFFE9B
:100D6000FDFC22FCE4CFCECDCC24E0501174FF80FA
:100D7000EDC3CC13CCCD13CDCE13CECF13CF047097
:070D8000F030D5DE0210B7D0
:1011F500E5682454F8E605682278513007027854EA
:10120500E475F0011210C5020F732000EB7F2ED29A
:10121500008018EF540F2490D43440D4FF30040BD1
:10122500EF24BFB41A0050032461FFE5696002157D
:1012350069056CE56C7002056B30070D7851E47536
:10124500F0011210C5EF020FB90220CA7403D207CC
:101255008003E4C207F5688B518A528953E4F56926
:10126500F56BF56CE56960077F2012123080F57526
:101275006AFFC201C200C202C203C205C206C20899
:101285001211FEFF700D3007057F00121241AF6C81
:10129500AE6B22B4255FC2D5C2041211FEFF24D065
:1012A500B40A00501A75F00A786930D50508B6FFFA
:1012B5000106C6A426F620D5047002D20380D924DF
:1012C500CFB41A00EF5004C2E5D20402152ED201A4
:1012D50080C6D20080C0D20280BCD2D580BAD205E9
:1012E50080B47F201212302002077401B5690040D6
:1012F500F11211F5FF121230021269D208D20680DE
:10130500951211F5FB1211F5FA1211F5F94A4B7008
:101315000679257A167BFF20022EE569602A7E0074
:101325008E82758300120F8C60060EEE656A70F072
:10133500C2D5EBC0E0EAC0E0E9C0E0EE12158ED000
:10134500E0F9D0E0FAD0E0FB120F73FF60AAEBC022
:10135500E0EAC0E0E9C0E0121230D0E02401F9D0A3
:10136500E03400FAD0E0FBE56A0460DCD56AD98098
:1013750087D20280A212157160F7E56A7001041226
:101385000DD1A96A600DE56A600914F56A1216188F
:10139500EF60F3EA30E702F404C3995077EAF425E5
:1013A5006A0430E701E404F56A800D12157160C125
:1013B500EA056A256A120DD1EA7867F630E701E495
:1013C500256A04D56A042005011412158EE4C0E0CF
:1013D5001216187867E6601320E70714F61212183C
:1013E500802204F6D0E014C0E07F00121218E56AEE
:1013F500600712120F156A800B30050312120FD009
:10140500E0021269D0E00480C512157160A0E56A9A
:1014150004120DD17867EAF6E56A20050260010439
:05142500240412158EE5
:10142A0074FF04C0E0121618121218E56A200502A9
:10143A00600312120FD0E0B56AE87F4512122278D3
:10144A0067E67F2B30E7047F2DF404C0E0121230E8
:10145A00D0E075F00A84C0F0121219D0E012121905
:10146A00021269791080027908C206C2088008D27D
:10147A00D5790A8004790AC2D5E56A047002F56A48
:10148A00E4FAFDFEFF1211F5FC7B0820011312118C
:10149A00F5FD7B1030000A1211F5FE1211F5FF7BE3
:1014AA0020EC3382D592D55013C3E43000069FFF57
:1014BA00E49EFEE42001039DFDE49CFCE4CBF8C21B
:1014CA0001EC700CCFCECDCCE824F8F870F380177D
:1014DA00C3EF33FFEE33FEED33FDEC33FCEB33FBAE
:1014EA00994002FB0FD8E9EB300105F8D0E0C44877
:1014FA00B201C0E00AEC4D4E4F78207B0070C2EA80
:10150A00B56A0040BCC0E0121590D0F0D0E02001CE
:10151A0004C4C0E0C4B201C0F0121219D0F0D5F070
:10152A00EB0212691210D5130653146D5812D74CD8
:10153A0012D34214714F14794414794912EC4314AA
:10154A007F5513B046140E45137A4716455012DBE1
:10155A002D12DF2E13022B12E323130020162E2A3C
:10156A00129B48000012FAE56AB4FF03756A061274
:10157A0011F5FC1211F5FD1211F5FE1211F5FF78A5
:10158A0060020E00790AA2D5200314300509B910A9
:10159A00020404B9080104A2D5200602500104205D
:1015AA0002689202B569005034C0E07F2030031906
:1015BA007F30A20272067205500F1215E7C202C2EC
:1015CA0006C205C2087F30800F300503E9C0E01269
:1015DA001230300503D0E0F9D0E0B569CC300517F8
:1015EA007F30B9100C1212307F583004077F788090
:1015FA0003B908031212303002057F2D0212307F20
:10160A00202008F87F2B2006F322920280CF7F0049
:10161A00B4070050052460F8E6FF22286E756C6C4A
:10162A002900D2011211F53001F8C201786930D5CA
:10163A000108F602129B2D504349581211F5240352
:10164A00B405004001E490164093121221743A1234
:0A165A001221D20375690402146D19
:100D8700E9D2E7C933E833F892D5EDD2E7CD33ECB2
:070D970033FC5002B2D5222B
:100D9E00EC30E7100FBF000C0EBE00080DBD0004B6
:100DAE000BEB6014A2D5EB13FCED92E7FD2274FF62
:100DBE00FCFDFEFF22E480F8A2D574FF13FC7D80BB
:030DCE00E480EFCF
:100DD100F920E72824F950037907E4F42402FB18E9
:100DE100DBFDE624FB5014E9600DE4F618E604F699
:0F0DF100B40A08E4F6D9F57401F60A22C2D52235
:100E0000ED33EC3392D5FA602AB4FF33EDC2E77BC1
:100E1000FF60067A0E7925E4227A0E792E20D50419
:100E20007A0E7929224E614E002B494E46002D49FB
:100E30004E4600E47A08F608DAFC7B00740722E8E4
:100E4000C0E0ECC0E0EDC0E0EEC0E0EFC0E0EA756D
:100E5000F010A4CAABF075F04DA42BFBE435F0FC08
:100E6000EA2410FAEB34C5FBEC34D9FCEDC2E7FF01
:100E700075F056A4F42411C5F0F434C58FF0A42AFB
:100E8000E5F03BE43CF620E714120F33D0E0FFD04E
:100E9000E0FED0E0FDD0E0FC120BFC8014F4041264
:100EA0000F33D0E0FFD0E0FED0E0FDD0E0FC120A2E
:100EB000F3D0E0F8E6FAEDD2E7CD33EC332482FB51
:100EC000E4C3CF33CFCE33CECD33CD33DBF37B078B
:100ED00075F00A846004F6081B0AE5F0F6088FF046
:100EE000740AA4FFACF08EF0740AA42CFEACF0508F
:100EF000010C8DF0740AA42CFDE435F0F608DBDE5D
:030F000074072251
:100F03003F8000004120000042C80000447A0000F6
:100F1300461C400047C35000497424004B18968078
:100F23004CBEBC205A0E1BCA6753C21C749DC5AE6F
:100F3300FB60065407601C2323120F61EB543860D7
:100F430009120F4D120F5C120AF3ECF8EDF9EEFAE9
:100F5300EFCB22EB120F5C80F1543803241C900F6B
:100F630003FE93FC0EEE93FD0EEE930ECE93FF2243
:101B820002192AE493A3F8E493A34003F68001F236
:101B920008DFF48029E493A3F85407240CC8C33364
:101BA200C4540F4420C8834004F456800146F6DF33
:101BB200E4800B0102040810204080901EEBE47EBA
:101BC200019360BCA3FF543F30E509541FFEE49328
:101BD200A360010ECF54C025E060A840B8E493A3EF
:101BE200FAE493A3F8E493A3C8C582C8CAC583CA1A
:101BF200F0A3C8C582C8CAC583CADFE9DEE780BED2
:011F2C0000B4
:100F7300BB010689828A83E0225002E722BBFE027C
:090F8300E32289828A83E49322AF
:100F8C00BB010CE58229F582E5833AF583E022501A
:100F9C0006E92582F8E622BBFE06E92582F8E22264
:0D0FAC00E58229F582E5833AF583E493227E
:100FB900BB010689828A83F0225002F722BBFE0117
:020FC900F32211
:100FCB00EF8DF0A4A8F0CF8CF0A428CE8DF0A42E3A
:020FDB00FE22F4
:100FDD00BC000BBE0029EF8DF084FFADF022E4CCF8
:100FED00F875F008EF2FFFEE33FEEC33FCEE9DECC1
:100FFD00984005FCEE9DFE0FD5F0E9E4CEFD22ED07
:10100D00F8F5F0EE8420D21CFEADF075F008EF2F50
:10101D00FFED33FD4007985006D5F0F222C398FD41
:05102D000FD5F0EA22DE
:10103200C2D5EC30E709B2D5E4C39DFDE49CFCEED9
:1010420030E715B2D5E4C39FFFE49EFE120FDDC365
:10105200E49DFDE49CFC8003120FDD30D507C3E460
:061062009FFFE49EFE2248
:10106800E88FF0A4CC8BF0A42CFCE98EF0A42CFC27
:101078008AF0EDA42CFCEA8EF0A4CDA8F08BF0A4A5
:101088002DCC3825F0FDE98FF0A42CCD35F0FCEB04
:101098008EF0A4FEA9F0EB8FF0A4CFC5F02ECD39C9
:0F10A800FEE43CFCEAA42DCE35F0FDE43CFC2236
:101E6500C2D5E830E70FB2D5E4C39BFBE49AFAE4A8
:101E750099F9E498F8EC30E717B2D5121E9B1211C8
:101E850063E4C39BFBE49AFAE499F9E498F88003C8
:101E950012116330D50DE4C39FFFE49EFEE49DFD62
:041EA500E49CFC229B
:0E10B700C3E49FFFE49EFEE49DFDE49CFC224A
:1010C500FAE6FB0808E6F925F0F618E6CA3AF6222C
:1010D500D083D082F8E4937012740193700DA3A3AA
:1010E50093F8740193F5828883E4737402936860BE
:0610F500EFA3A3A380DFBE
:1020CA00EFB40A07740D1220D5740A309811A89932
:1020DA00B8130CC2983098FDA899C298B811F63076
:0720EA0099FDC299F599224E
:0C21AA00EE30E707C3E49FFFE49EFE2236
:1010FB00EF4E6012EF60010EEDBB010B89828A830C
:10110B00F0A3DFFCDEFA2289F05007F709DFFCA918
:0C111B00F022BBFEFCF309DFFCA9F0226F
:1011270075F008758200EF2FFFEE33FECD33CDCC7F
:1011370033CCC58233C5829BED9AEC99E582984002
:101147000CF582EE9BFEED9AFDEC99FC0FD5F0D6DF
:10115700E4CEFBE4CDFAE4CCF9A88222B800C1B909
:101167000059BA002DEC8BF084CFCECDFCE5F0CB47
:10117700F97818EF2FFFEE33FEED33FDEC33FCEB80
:1011870033FB10D703994004EB99FB0FD8E5E4F93B
:10119700FA227818EF2FFFEE33FEED33FDEC33FC28
:1011A700C933C910D7059BE99A4007EC9BFCE99A1C
:1011B700F90FD8E0E4C9FAE4CCFB2275F010EF2F61
:1011C700FFEE33FEED33FDCC33CCC833C810D70761
:1011D7009BEC9AE899400AED9BFDEC9AFCE899F89C
:0E11E7000FD5F0DAE4CDFBE4CCFAE4C8F9222F
:00000001FF
