:1002500077656C636F6D6520746F20757365210021
:08026000636F756E74203D0010
:0B02BE00010C00020A00000208000012
:100003001202687F801202807BFF7A02795012010C
:10001300E61202AAE50C640170F7F50C7FC0120228
:10002300807BFF7A0279601201E6AE0AAF0B7C2770
:100033007D101200CF7E037FE8CFCDCFCECCCE1282
:1000430000CFEF2430FF120295AE0AAF0B7C037D85
:10005300E81200CF7E007F64CFCDCFCECCCE12008E
:10006300CFEF2430FF120295AE0AAF0B7C007D6404
:100073001200CF7E007F0ACFCDCFCECCCE1200CFE1
:10008300EF2430FF120295AE0AAF0B7C007D0A12FB
:1000930000CFED2430FF120295050BE50B7002052E
:1000A3000AE509640245086003020014F508F5092E
:0300B30002001434
:1002AA003091107F0A7E001202103091062091FDD3
:0402BA00750C01229C
:10021000E4FDFCC3ED9FEC9E5015E4FBFA0BBB0024
:0F022000010AEB647B4A70F50DBD00010C80E410
:01022F0022AC
:10023000E4FDFCC3ED9FEC9E5015E4FBFA0BBB0004
:0F024000010AEB647B4A70F50DBD00010C80E4F0
:01024F00228C
:10028000A907C2A57F017E00120230D2A789801281
:050290000230C2A722AC
:10029500A907D2A57F017E001202308980D2A7125C
:0502A5000230C2A72297
:1001E6008B0D8A0E890FAB0DAA0EA90F1200B6FF52
:1001F600D394007480948040101202957401250FE8
:0A020600F50FE4350EF50E80DD2241
:10026800C2A7C2A67F381202807F0C1202807F06C6
:080278001202807F01020280E6
:0300000002015AA0
:0C015A00787FE4F6D8FD75810F0201A14A
:1000B600BB010689828A83E0225002E722BBFE0248
:0900C600E32289828A83E493227B
:1000CF00C2D5EC30E709B2D5E4C39DFDE49CFCEE4C
:1000DF0030E715B2D5E4C39FFFE49EFE120105C3BE
:1000EF00E49DFDE49CFC800312010530D507C3E4B9
:0600FF009FFFE49EFE22BB
:10016600020003E493A3F8E493A34003F68001F2AC
:1001760008DFF48029E493A3F85407240CC8C3339A
:10018600C4540F4420C8834004F456800146F6DF69
:10019600E4800B01020408102040809002BEE47E39
:1001A600019360BCA3FF543F30E509541FFEE4935E
:1001B600A360010ECF54C025E060A840B8E493A325
:1001C600FAE493A3F8E493A3C8C582C8CAC583CA50
:1001D600F0A3C8C582C8CAC583CADFE9DEE780BE08
:0102C9000034
:10010500BC000BBE0029EF8DF084FFADF022E4CCDE
:10011500F875F008EF2FFFEE33FEEC33FCEE9DECA7
:10012500984005FCEE9DFE0FD5F0E9E4CEFD22EDED
:10013500F8F5F0EE8420D21CFEADF075F008EF2F37
:10014500FFED33FD4007985006D5F0F222C398FD28
:050155000FD5F0EA22C5
:00000001FF
